//eth_getTransactionByHash
//https://api-goerli.etherscan.io/api?module=proxy&action=eth_getTransactionByHash&txhash=0xa8feda0d16b12fe3a8d5c4a613b47fd44abf2b901fb5be3ea4b939961074866d&apikey=1PQQQ3PTKPWJAB64XGHTW1T3UHKQIF458N
{
  "jsonrpc": "2.0",
  "result": {
    "accessList": [],
    "blockHash": "0x86f43b8de17ef81e79cedaa1a1f633cfac569b23768c518e494f323e9d7bc977",
    "blockNumber": "0x616836",
    "chainId": "0x5",
    "condition": null,
    "creates": null,
    "from": "0xb5369f8300e5dcc90f243bf73f3d994efdfbe76a",
    "gas": "0xf4240",
    "gasPrice": "0x9502f920",
    "hash": "0x02530e797319676b5011146f4f5b1b6513f28bc516d6228bdcef68f257b21555",
    "input": "0xb438689f0000000000000000000000003aac1cc67c2ec5db4ea850957b967ba153ad62790000000000000000000000000000000000000000000000000000000000000100071bd408e2e86408d161c4a8a149cd51e00c477302c118e3b6a6230e38b6e5b313ede9d15bf49a53bcb42c8ac9e23a2d48a584053e4a83f36671b9eb06c8de8f000000000000000000000000983a89f84d3405086fd2b3d3e0e9e70baeb0bc4d000000000000000000000000000000000000000000000000000000000000000000000000000000000000000000000000000000000000000000000000000000000000000000000000000000000000000000000000000000000000000000000000000000000000000000000000000000000000000000000000000000000000010008a0545baa54057aeae6180ffd3209e6ce0c058cde9a6af211b94a1996fcf6b806fbcfc029eab4d0ea5d84b4b53014c968d8ce166e8b72f39c95096d60eca7920547efff310a81c2d1d3a30258ca0efdc8f231e9a9a6be32e83524f710ef365828006fdc6c3b48f6a7f9209d4e36f0aee39278fc4bce2806ef3fefbfbe88e1c5076e938de1494caebd4185d42f596e6d9964afd2454d65be7d9925c8d2a7f56c0a13dad87482793862156a7749db1b24c8363b3857417e89add5ba1db478c4d5257dbd78c8e9390786facb6086aa95b9a14fe9e92bc2628a955a8ce8fa34f5271d16b8143e46081d19cc07ce9f3f34e21f03100755c91e197184c561be87ff9e",
    "maxFeePerGas": "0x9502f93a",
    "maxPriorityFeePerGas": "0x9502f900",
    "nonce": "0x10",
    "publicKey": "0x2fdc6d2c8c4829d0f4c8d538c24d138366ebc514d00696e0928628846124893947a7a23b3d6b5c96fb7cd6bb4610f076665586457f780f590a4e6b39657299e5",
    "r": "0xc85bd352cf5ba3d105e80809e0612185e549a3b242dda8d89036104fe8769074",
    "raw": "0x02f902910510849502f900849502f93a830f424094454d870a72e29d5e5697f635128d18077bd04c6080b90224b438689f0000000000000000000000003aac1cc67c2ec5db4ea850957b967ba153ad62790000000000000000000000000000000000000000000000000000000000000100071bd408e2e86408d161c4a8a149cd51e00c477302c118e3b6a6230e38b6e5b313ede9d15bf49a53bcb42c8ac9e23a2d48a584053e4a83f36671b9eb06c8de8f000000000000000000000000983a89f84d3405086fd2b3d3e0e9e70baeb0bc4d000000000000000000000000000000000000000000000000000000000000000000000000000000000000000000000000000000000000000000000000000000000000000000000000000000000000000000000000000000000000000000000000000000000000000000000000000000000000000000000000000000000000010008a0545baa54057aeae6180ffd3209e6ce0c058cde9a6af211b94a1996fcf6b806fbcfc029eab4d0ea5d84b4b53014c968d8ce166e8b72f39c95096d60eca7920547efff310a81c2d1d3a30258ca0efdc8f231e9a9a6be32e83524f710ef365828006fdc6c3b48f6a7f9209d4e36f0aee39278fc4bce2806ef3fefbfbe88e1c5076e938de1494caebd4185d42f596e6d9964afd2454d65be7d9925c8d2a7f56c0a13dad87482793862156a7749db1b24c8363b3857417e89add5ba1db478c4d5257dbd78c8e9390786facb6086aa95b9a14fe9e92bc2628a955a8ce8fa34f5271d16b8143e46081d19cc07ce9f3f34e21f03100755c91e197184c561be87ff9ec080a0c85bd352cf5ba3d105e80809e0612185e549a3b242dda8d89036104fe8769074a0388210eb3e84e8abc97fceb9e326a677b15aa9053480cb0f6b9071340c150ef8",
    "s": "0x388210eb3e84e8abc97fceb9e326a677b15aa9053480cb0f6b9071340c150ef8",
    "to": "0x454d870a72e29d5e5697f635128d18077bd04c60",
    "transactionIndex": "0x17",
    "type": "0x2",
    "v": "0x0",
    "value": "0x0"
  },
  "id": 1
}

{
  "jsonrpc": "2.0",
  "result": {
    "accessList": [],
    "blockHash": "0x0118ae526172c9e8ae26c6774e3cfbee5166e3d278af002630228f1ec7d37fce",
    "blockNumber": "0x6161a2",
    "chainId": "0x5",
    "condition": null,
    "creates": null,
    "from": "0x983a89f84d3405086fd2b3d3e0e9e70baeb0bc4d",
    "gas": "0x5208",
    "gasPrice": "0x59682f0b",
    "hash": "0xa8feda0d16b12fe3a8d5c4a613b47fd44abf2b901fb5be3ea4b939961074866d",
    "input": "0x",
    "maxFeePerGas": "0x59682f0e",
    "maxPriorityFeePerGas": "0x59682f00",
    "nonce": "0xe",
    "publicKey": "0x3230873d2d9f72af495d0baec198b70b8ac6ecba0bbbb4c8f086d69585f796b54f7881e84b33b80d50fb02037e25940a98db4e04955af4fbfe90c09bc26df705",
    "r": "0x42bcebfed56b95710c23fca7e49cffe475192839c60dab2a0146075267079ca5",
    "raw": "0x02f872050e8459682f008459682f0e82520894b5369f8300e5dcc90f243bf73f3d994efdfbe76a880de0b6b3a764000080c080a042bcebfed56b95710c23fca7e49cffe475192839c60dab2a0146075267079ca5a00ce07875416f25a591f60aa1183ca4c6c8c5b658490b41fa44812fb23d87e952",
    "s": "0xce07875416f25a591f60aa1183ca4c6c8c5b658490b41fa44812fb23d87e952",
    "to": "0xb5369f8300e5dcc90f243bf73f3d994efdfbe76a",
    "transactionIndex": "0x2a",
    "type": "0x2",
    "v": "0x0",
    "value": "0xde0b6b3a7640000"
  },
  "id": 1
}
//eth_getTransactionReceipt
{
  "jsonrpc": "2.0",
  "result": {
    "blockHash": "0x86f43b8de17ef81e79cedaa1a1f633cfac569b23768c518e494f323e9d7bc977",
    "blockNumber": "0x616836",
    "contractAddress": null,
    "cumulativeGasUsed": "0x474915",
    "effectiveGasPrice": "0x9502f920",
    "from": "0xb5369f8300e5dcc90f243bf73f3d994efdfbe76a",
    "gasUsed": "0x5a247",
    "logs": [
      {
        "address": "0x3aac1cc67c2ec5db4ea850957b967ba153ad6279",
        "blockHash": "0x86f43b8de17ef81e79cedaa1a1f633cfac569b23768c518e494f323e9d7bc977",
        "blockNumber": "0x616836",
        "data": "0x000000000000000000000000983a89f84d3405086fd2b3d3e0e9e70baeb0bc4d13ede9d15bf49a53bcb42c8ac9e23a2d48a584053e4a83f36671b9eb06c8de8f0000000000000000000000000000000000000000000000000000000000000000",
        "logIndex": "0x3d",
        "removed": false,
        "topics": [
          "0xe9e508bad6d4c3227e881ca19068f099da81b5164dd6d62b2eaf1e8bc6c34931",
          "0x0000000000000000000000000000000000000000000000000000000000000000"
        ],
        "transactionHash": "0x02530e797319676b5011146f4f5b1b6513f28bc516d6228bdcef68f257b21555",
        "transactionIndex": "0x17",
        "transactionLogIndex": "0x0",
        "type": "mined"
      },
      {
        "address": "0x722122df12d4e14e13ac3b6895a86e84145b6967",
        "blockHash": "0x86f43b8de17ef81e79cedaa1a1f633cfac569b23768c518e494f323e9d7bc977",
        "blockNumber": "0x616836",
        "data": "0x0000000000000000000000003aac1cc67c2ec5db4ea850957b967ba153ad627900000000000000000000000000000000000000000000000000000000006168360000000000000000000000000000000000000000000000000000000000002c89",
        "logIndex": "0x3e",
        "removed": false,
        "topics": [
          "0x5d3e96213d4520bdc95a25d628a39768f1a90a2b939894355479596910d179df",
          "0x13ede9d15bf49a53bcb42c8ac9e23a2d48a584053e4a83f36671b9eb06c8de8f"
        ],
        "transactionHash": "0x02530e797319676b5011146f4f5b1b6513f28bc516d6228bdcef68f257b21555",
        "transactionIndex": "0x17",
        "transactionLogIndex": "0x1",
        "type": "mined"
      }
    ],
    "logsBloom": "0x00000000000000000000000000000000000000000000200000000000000000000000000000000000000000000000000000000000000000000000000000000400000000000000000000000000800000004000000000000000000000000000001000000000020000000000000000002800000000000000000000000000000000000000000000000000000000008000000000000000000000000000800000000000000000000000000000000008000000000000000000000000000000000000080000000000000000000000000040000000000000000008000000000000000020000000000000200000000000000021000000000000000000000000000000000000",
    "status": "0x1",
    "to": "0x454d870a72e29d5e5697f635128d18077bd04c60",
    "transactionHash": "0x02530e797319676b5011146f4f5b1b6513f28bc516d6228bdcef68f257b21555",
    "transactionIndex": "0x17",
    "type": "0x2"
  },
  "id": 1
}
//Get "Internal Transactions" by Block Range
//https://api-goerli.etherscan.io/api?module=account&action=txlistinternal&startblock=6383670&endblock=6383670&sort=asc&apikey=YourApiKeyToken
{
  {
    "blockNumber": "6383670",
    "timeStamp": "1644932250",
    "hash": "0x02530e797319676b5011146f4f5b1b6513f28bc516d6228bdcef68f257b21555",
    "from": "0x454d870a72e29d5e5697f635128d18077bd04c60",
    "to": "0x3aac1cc67c2ec5db4ea850957b967ba153ad6279",
    "value": "0",
    "contractAddress": "",
    "input": "",
    "type": "call",
    "gas": "950688",
    "gasUsed": "292740",
    "traceId": "0",
    "isError": "0",
    "errCode": ""
  },
  {
    "blockNumber": "6383670",
    "timeStamp": "1644932250",
    "hash": "0x02530e797319676b5011146f4f5b1b6513f28bc516d6228bdcef68f257b21555",
    "from": "0x3aac1cc67c2ec5db4ea850957b967ba153ad6279",
    "to": "0xe65a2c40f2a8975d4a238a2ead06137b560af387",
    "value": "0",
    "contractAddress": "",
    "input": "",
    "type": "call",
    "gas": "916157",
    "gasUsed": "240666",
    "traceId": "0_0",
    "isError": "0",
    "errCode": ""
  },
  {
    "blockNumber": "6383670",
    "timeStamp": "1644932250",
    "hash": "0x02530e797319676b5011146f4f5b1b6513f28bc516d6228bdcef68f257b21555",
    "from": "0x3aac1cc67c2ec5db4ea850957b967ba153ad6279",
    "to": "0x983a89f84d3405086fd2b3d3e0e9e70baeb0bc4d",
    "value": "1000000000000000000",
    "contractAddress": "",
    "input": "",
    "type": "call",
    "gas": "649940",
    "gasUsed": "0",
    "traceId": "0_1",
    "isError": "0",
    "errCode": ""
  },
  {
    "blockNumber": "6383670",
    "timeStamp": "1644932250",
    "hash": "0x02530e797319676b5011146f4f5b1b6513f28bc516d6228bdcef68f257b21555",
    "from": "0x454d870a72e29d5e5697f635128d18077bd04c60",
    "to": "0x722122df12d4e14e13ac3b6895a86e84145b6967",
    "value": "0",
    "contractAddress": "",
    "input": "",
    "type": "call",
    "gas": "657478",
    "gasUsed": "37076",
    "traceId": "1",
    "isError": "0",
    "errCode": ""
  },
  {
    "blockNumber": "6383670",
    "timeStamp": "1644932250",
    "hash": "0x02530e797319676b5011146f4f5b1b6513f28bc516d6228bdcef68f257b21555",
    "from": "0x722122df12d4e14e13ac3b6895a86e84145b6967",
    "to": "0x527653ea119f3e6a1f5bd18fbf4714081d7b31ce",
    "value": "0",
    "contractAddress": "",
    "input": "",
    "type": "delegatecall",
    "gas": "642258",
    "gasUsed": "32012",
    "traceId": "1_0",
    "isError": "0",
    "errCode": ""
  }
}